{
  "_format": "hh-sol-artifact-1",
  "contractName": "CampaignFactory",
  "sourceName": "contracts/CampaignFactory.sol",
  "abi": [
    {
      "anonymous": false,
      "inputs": [
        {
          "indexed": true,
          "internalType": "address",
          "name": "campaign",
          "type": "address"
        },
        {
          "indexed": true,
          "internalType": "address",
          "name": "owner",
          "type": "address"
        }
      ],
      "name": "CampaignDeployed",
      "type": "event"
    },
    {
      "inputs": [],
      "name": "GENESIS_STAKE",
      "outputs": [
        {
          "internalType": "uint256",
          "name": "",
          "type": "uint256"
        }
      ],
      "stateMutability": "view",
      "type": "function"
    },
    {
      "inputs": [
        {
          "internalType": "string",
          "name": "title",
          "type": "string"
        },
        {
          "internalType": "string",
          "name": "desc",
          "type": "string"
        },
        {
          "internalType": "uint256",
          "name": "target",
          "type": "uint256"
        },
        {
          "internalType": "uint256",
          "name": "deadlineTs",
          "type": "uint256"
        },
        {
          "internalType": "string",
          "name": "image",
          "type": "string"
        }
      ],
      "name": "createCampaign",
      "outputs": [
        {
          "internalType": "address",
          "name": "campaignAddr",
          "type": "address"
        }
      ],
      "stateMutability": "payable",
      "type": "function"
    },
    {
      "inputs": [],
      "name": "getCampaigns",
      "outputs": [
        {
          "components": [
            {
              "internalType": "address",
              "name": "owner",
              "type": "address"
            },
            {
              "internalType": "string",
              "name": "title",
              "type": "string"
            },
            {
              "internalType": "string",
              "name": "description",
              "type": "string"
            },
            {
              "internalType": "uint256",
              "name": "target",
              "type": "uint256"
            },
            {
              "internalType": "uint256",
              "name": "deadlineTs",
              "type": "uint256"
            },
            {
              "internalType": "uint256",
              "name": "amountCollected",
              "type": "uint256"
            },
            {
              "internalType": "string",
              "name": "image",
              "type": "string"
            },
            {
              "internalType": "address",
              "name": "contractAddress",
              "type": "address"
            }
          ],
          "internalType": "struct CampaignFactory.CampaignData[]",
          "name": "",
          "type": "tuple[]"
        }
      ],
      "stateMutability": "view",
      "type": "function"
    }
  ],
  "bytecode": "0x6080604052348015600f57600080fd5b5061296b8061001f6000396000f3fe6080604052600436106100345760003560e01c8063a6b0363314610039578063d4e3dd6f14610064578063f6284dba14610094575b600080fd5b34801561004557600080fd5b5061004e6100bf565b60405161005b91906109b2565b60405180910390f35b61007e60048036038101906100799190610a6f565b61039f565b60405161008b9190610b5a565b60405180910390f35b3480156100a057600080fd5b506100a961072f565b6040516100b69190610b84565b60405180910390f35b60606000805480602002602001604051908101604052809291908181526020016000905b828210156103965783829060005260206000209060080201604051806101000160405290816000820160009054906101000a900473ffffffffffffffffffffffffffffffffffffffff1673ffffffffffffffffffffffffffffffffffffffff1673ffffffffffffffffffffffffffffffffffffffff16815260200160018201805461016d90610bce565b80601f016020809104026020016040519081016040528092919081815260200182805461019990610bce565b80156101e65780601f106101bb576101008083540402835291602001916101e6565b820191906000526020600020905b8154815290600101906020018083116101c957829003601f168201915b505050505081526020016002820180546101ff90610bce565b80601f016020809104026020016040519081016040528092919081815260200182805461022b90610bce565b80156102785780601f1061024d57610100808354040283529160200191610278565b820191906000526020600020905b81548152906001019060200180831161025b57829003601f168201915b505050505081526020016003820154815260200160048201548152602001600582015481526020016006820180546102af90610bce565b80601f01602080910402602001604051908101604052809291908181526020018280546102db90610bce565b80156103285780601f106102fd57610100808354040283529160200191610328565b820191906000526020600020905b81548152906001019060200180831161030b57829003601f168201915b505050505081526020016007820160009054906101000a900473ffffffffffffffffffffffffffffffffffffffff1673ffffffffffffffffffffffffffffffffffffffff1673ffffffffffffffffffffffffffffffffffffffff1681525050815260200190600101906100e3565b50505050905090565b600067016345785d8a00003410156103ec576040517f08c379a00000000000000000000000000000000000000000000000000000000081526004016103e390610c5c565b60405180910390fd5b42841161042e576040517f08c379a000000000000000000000000000000000000000000000000000000000815260040161042590610cc8565b60405180910390fd5b600034338b8b8b8b8b8b8b8b6040516104469061073b565b61045899989796959493929190610d24565b6040518091039082f0905080158015610475573d6000803e3d6000fd5b50905080915060006040518061010001604052803373ffffffffffffffffffffffffffffffffffffffff1681526020018c8c8080601f016020809104026020016040519081016040528093929190818152602001838380828437600081840152601f19601f8201169050808301925050505050505081526020018a8a8080601f016020809104026020016040519081016040528093929190818152602001838380828437600081840152601f19601f82011690508083019250505050505050815260200188815260200187815260200134815260200186868080601f016020809104026020016040519081016040528093929190818152602001838380828437600081840152601f19601f8201169050808301925050505050505081526020018473ffffffffffffffffffffffffffffffffffffffff16815250908060018154018082558091505060019003906000526020600020906008020160009091909190915060008201518160000160006101000a81548173ffffffffffffffffffffffffffffffffffffffff021916908373ffffffffffffffffffffffffffffffffffffffff16021790555060208201518160010190816106349190610f7b565b50604082015181600201908161064a9190610f7b565b50606082015181600301556080820151816004015560a0820151816005015560c082015181600601908161067e9190610f7b565b5060e08201518160070160006101000a81548173ffffffffffffffffffffffffffffffffffffffff021916908373ffffffffffffffffffffffffffffffffffffffff16021790555050503373ffffffffffffffffffffffffffffffffffffffff168273ffffffffffffffffffffffffffffffffffffffff167f0c714be96ae9086a91a7d8fd65384a96d1420ca5d0897d5c7777947ad288f9f160405160405180910390a35098975050505050505050565b67016345785d8a000081565b6118e88061104e83390190565b600081519050919050565b600082825260208201905092915050565b6000819050602082019050919050565b600073ffffffffffffffffffffffffffffffffffffffff82169050919050565b600061079f82610774565b9050919050565b6107af81610794565b82525050565b600081519050919050565b600082825260208201905092915050565b60005b838110156107ef5780820151818401526020810190506107d4565b60008484015250505050565b6000601f19601f8301169050919050565b6000610817826107b5565b61082181856107c0565b93506108318185602086016107d1565b61083a816107fb565b840191505092915050565b6000819050919050565b61085881610845565b82525050565b60006101008301600083015161087760008601826107a6565b506020830151848203602086015261088f828261080c565b915050604083015184820360408601526108a9828261080c565b91505060608301516108be606086018261084f565b5060808301516108d1608086018261084f565b5060a08301516108e460a086018261084f565b5060c083015184820360c08601526108fc828261080c565b91505060e083015161091160e08601826107a6565b508091505092915050565b6000610928838361085e565b905092915050565b6000602082019050919050565b600061094882610748565b6109528185610753565b93508360208202850161096485610764565b8060005b858110156109a05784840389528151610981858261091c565b945061098c83610930565b925060208a01995050600181019050610968565b50829750879550505050505092915050565b600060208201905081810360008301526109cc818461093d565b905092915050565b600080fd5b600080fd5b600080fd5b600080fd5b600080fd5b60008083601f840112610a0357610a026109de565b5b8235905067ffffffffffffffff811115610a2057610a1f6109e3565b5b602083019150836001820283011115610a3c57610a3b6109e8565b5b9250929050565b610a4c81610845565b8114610a5757600080fd5b50565b600081359050610a6981610a43565b92915050565b60008060008060008060008060a0898b031215610a8f57610a8e6109d4565b5b600089013567ffffffffffffffff811115610aad57610aac6109d9565b5b610ab98b828c016109ed565b9850985050602089013567ffffffffffffffff811115610adc57610adb6109d9565b5b610ae88b828c016109ed565b96509650506040610afb8b828c01610a5a565b9450506060610b0c8b828c01610a5a565b935050608089013567ffffffffffffffff811115610b2d57610b2c6109d9565b5b610b398b828c016109ed565b92509250509295985092959890939650565b610b5481610794565b82525050565b6000602082019050610b6f6000830184610b4b565b92915050565b610b7e81610845565b82525050565b6000602082019050610b996000830184610b75565b92915050565b7f4e487b7100000000000000000000000000000000000000000000000000000000600052602260045260246000fd5b60006002820490506001821680610be657607f821691505b602082108103610bf957610bf8610b9f565b5b50919050565b600082825260208201905092915050565b7f4d757374207374616b65206174206c6561737420302e31204554480000000000600082015250565b6000610c46601b83610bff565b9150610c5182610c10565b602082019050919050565b60006020820190508181036000830152610c7581610c39565b9050919050565b7f446561646c696e6520696e207468652066757475726500000000000000000000600082015250565b6000610cb2601683610bff565b9150610cbd82610c7c565b602082019050919050565b60006020820190508181036000830152610ce181610ca5565b9050919050565b82818337600083830152505050565b6000610d038385610bff565b9350610d10838584610ce8565b610d19836107fb565b840190509392505050565b600060c082019050610d39600083018c610b4b565b8181036020830152610d4c818a8c610cf7565b90508181036040830152610d6181888a610cf7565b9050610d706060830187610b75565b610d7d6080830186610b75565b81810360a0830152610d90818486610cf7565b90509a9950505050505050505050565b7f4e487b7100000000000000000000000000000000000000000000000000000000600052604160045260246000fd5b60008190508160005260206000209050919050565b60006020601f8301049050919050565b600082821b905092915050565b600060088302610e317fffffffffffffffffffffffffffffffffffffffffffffffffffffffffffffffff82610df4565b610e3b8683610df4565b95508019841693508086168417925050509392505050565b6000819050919050565b6000610e78610e73610e6e84610845565b610e53565b610845565b9050919050565b6000819050919050565b610e9283610e5d565b610ea6610e9e82610e7f565b848454610e01565b825550505050565b600090565b610ebb610eae565b610ec6818484610e89565b505050565b5b81811015610eea57610edf600082610eb3565b600181019050610ecc565b5050565b601f821115610f2f57610f0081610dcf565b610f0984610de4565b81016020851015610f18578190505b610f2c610f2485610de4565b830182610ecb565b50505b505050565b600082821c905092915050565b6000610f5260001984600802610f34565b1980831691505092915050565b6000610f6b8383610f41565b9150826002028217905092915050565b610f84826107b5565b67ffffffffffffffff811115610f9d57610f9c610da0565b5b610fa78254610bce565b610fb2828285610eee565b600060209050601f831160018114610fe55760008415610fd3578287015190505b610fdd8582610f5f565b865550611045565b601f198416610ff386610dcf565b60005b8281101561101b57848901518255600182019150602085019450602081019050610ff6565b868310156110385784890151611034601f891682610f41565b8355505b6001600288020188555050505b50505050505056fe60a06040526040516118e83803806118e8833981810160405281019061002591906103bb565b428211610067576040517f08c379a000000000000000000000000000000000000000000000000000000000815260040161005e906104f9565b60405180910390fd5b8573ffffffffffffffffffffffffffffffffffffffff1660808173ffffffffffffffffffffffffffffffffffffffff168152505084600090816100aa9190610730565b5083600190816100ba9190610730565b50826002819055508160038190555080600490816100d89190610730565b506040518060a00160405280600081526020018773ffffffffffffffffffffffffffffffffffffffff1681526020013481526020014281526020016000801b815250600560008081526020019081526020016000206000820151816000015560208201518160010160006101000a81548173ffffffffffffffffffffffffffffffffffffffff021916908373ffffffffffffffffffffffffffffffffffffffff1602179055506040820151816002015560608201518160030155608082015181600401559050506000600681905550505050505050610802565b6000604051905090565b600080fd5b600080fd5b600073ffffffffffffffffffffffffffffffffffffffff82169050919050565b60006101f1826101c6565b9050919050565b610201816101e6565b811461020c57600080fd5b50565b60008151905061021e816101f8565b92915050565b600080fd5b600080fd5b6000601f19601f8301169050919050565b7f4e487b7100000000000000000000000000000000000000000000000000000000600052604160045260246000fd5b6102778261022e565b810181811067ffffffffffffffff821117156102965761029561023f565b5b80604052505050565b60006102a96101b2565b90506102b5828261026e565b919050565b600067ffffffffffffffff8211156102d5576102d461023f565b5b6102de8261022e565b9050602081019050919050565b60005b838110156103095780820151818401526020810190506102ee565b60008484015250505050565b6000610328610323846102ba565b61029f565b90508281526020810184848401111561034457610343610229565b5b61034f8482856102eb565b509392505050565b600082601f83011261036c5761036b610224565b5b815161037c848260208601610315565b91505092915050565b6000819050919050565b61039881610385565b81146103a357600080fd5b50565b6000815190506103b58161038f565b92915050565b60008060008060008060c087890312156103d8576103d76101bc565b5b60006103e689828a0161020f565b965050602087015167ffffffffffffffff811115610407576104066101c1565b5b61041389828a01610357565b955050604087015167ffffffffffffffff811115610434576104336101c1565b5b61044089828a01610357565b945050606061045189828a016103a6565b935050608061046289828a016103a6565b92505060a087015167ffffffffffffffff811115610483576104826101c1565b5b61048f89828a01610357565b9150509295509295509295565b600082825260208201905092915050565b7f446561646c696e6520696e207061737400000000000000000000000000000000600082015250565b60006104e360108361049c565b91506104ee826104ad565b602082019050919050565b60006020820190508181036000830152610512816104d6565b9050919050565b600081519050919050565b7f4e487b7100000000000000000000000000000000000000000000000000000000600052602260045260246000fd5b6000600282049050600182168061056b57607f821691505b60208210810361057e5761057d610524565b5b50919050565b60008190508160005260206000209050919050565b60006020601f8301049050919050565b600082821b905092915050565b6000600883026105e67fffffffffffffffffffffffffffffffffffffffffffffffffffffffffffffffff826105a9565b6105f086836105a9565b95508019841693508086168417925050509392505050565b6000819050919050565b600061062d61062861062384610385565b610608565b610385565b9050919050565b6000819050919050565b61064783610612565b61065b61065382610634565b8484546105b6565b825550505050565b600090565b610670610663565b61067b81848461063e565b505050565b5b8181101561069f57610694600082610668565b600181019050610681565b5050565b601f8211156106e4576106b581610584565b6106be84610599565b810160208510156106cd578190505b6106e16106d985610599565b830182610680565b50505b505050565b600082821c905092915050565b6000610707600019846008026106e9565b1980831691505092915050565b600061072083836106f6565b9150826002028217905092915050565b61073982610519565b67ffffffffffffffff8111156107525761075161023f565b5b61075c8254610553565b6107678282856106a3565b600060209050601f83116001811461079a5760008415610788578287015190505b6107928582610714565b8655506107fa565b601f1984166107a886610584565b60005b828110156107d0578489015182556001820191506020850194506020810190506107ab565b868310156107ed57848901516107e9601f8916826106f6565b8355505b6001600288020188555050505b505050505050565b6080516110bd61082b600039600081816102a101528181610425015261060e01526110bd6000f3fe6080604052600436106100a75760003560e01c8063d4b8399211610064578063d4b839921461019a578063e834a834146101c5578063ed88c68e146101f0578063f25b3f99146101fa578063f3ccaac01461023b578063f3f6f0d714610266576100a7565b806329dcb0cf146100ac578063332f7acf146100d75780633ccfd60b146101025780634a79d50c146101195780637284e416146101445780638da5cb5b1461016f575b600080fd5b3480156100b857600080fd5b506100c1610291565b6040516100ce91906109d4565b60405180910390f35b3480156100e357600080fd5b506100ec610297565b6040516100f991906109d4565b60405180910390f35b34801561010e57600080fd5b5061011761029f565b005b34801561012557600080fd5b5061012e6104f0565b60405161013b9190610a7f565b60405180910390f35b34801561015057600080fd5b5061015961057e565b6040516101669190610a7f565b60405180910390f35b34801561017b57600080fd5b5061018461060c565b6040516101919190610ae2565b60405180910390f35b3480156101a657600080fd5b506101af610630565b6040516101bc91906109d4565b60405180910390f35b3480156101d157600080fd5b506101da610636565b6040516101e79190610b18565b60405180910390f35b6101f8610649565b005b34801561020657600080fd5b50610221600480360381019061021c9190610b64565b6108d1565b604051610232959493929190610baa565b60405180910390f35b34801561024757600080fd5b50610250610927565b60405161025d9190610a7f565b60405180910390f35b34801561027257600080fd5b5061027b6109b5565b60405161028891906109d4565b60405180910390f35b60035481565b600047905090565b7f000000000000000000000000000000000000000000000000000000000000000073ffffffffffffffffffffffffffffffffffffffff163373ffffffffffffffffffffffffffffffffffffffff161461032d576040517f08c379a000000000000000000000000000000000000000000000000000000000815260040161032490610c49565b60405180910390fd5b600760009054906101000a900460ff161561037d576040517f08c379a000000000000000000000000000000000000000000000000000000000815260040161037490610cb5565b60405180910390fd5b60035442106103c1576040517f08c379a00000000000000000000000000000000000000000000000000000000081526004016103b890610d21565b60405180910390fd5b600254471015610406576040517f08c379a00000000000000000000000000000000000000000000000000000000081526004016103fd90610d8d565b60405180910390fd5b6001600760006101000a81548160ff02191690831515021790555060007f000000000000000000000000000000000000000000000000000000000000000073ffffffffffffffffffffffffffffffffffffffff164760405161046790610dde565b60006040518083038185875af1925050503d80600081146104a4576040519150601f19603f3d011682016040523d82523d6000602084013e6104a9565b606091505b50509050806104ed576040517f08c379a00000000000000000000000000000000000000000000000000000000081526004016104e490610e3f565b60405180910390fd5b50565b600080546104fd90610e8e565b80601f016020809104026020016040519081016040528092919081815260200182805461052990610e8e565b80156105765780601f1061054b57610100808354040283529160200191610576565b820191906000526020600020905b81548152906001019060200180831161055957829003601f168201915b505050505081565b6001805461058b90610e8e565b80601f01602080910402602001604051908101604052809291908181526020018280546105b790610e8e565b80156106045780601f106105d957610100808354040283529160200191610604565b820191906000526020600020905b8154815290600101906020018083116105e757829003601f168201915b505050505081565b7f000000000000000000000000000000000000000000000000000000000000000081565b60025481565b600760009054906101000a900460ff1681565b6000341161068c576040517f08c379a000000000000000000000000000000000000000000000000000000000815260040161068390610f0b565b60405180910390fd5b60035442106106d0576040517f08c379a00000000000000000000000000000000000000000000000000000000081526004016106c790610f77565b60405180910390fd5b60006006600081546106e190610fc6565b91905081905590506040518060a001604052808281526020013373ffffffffffffffffffffffffffffffffffffffff16815260200134815260200142815260200160056000600185610733919061100e565b81526020019081526020016000206000015460056000600186610756919061100e565b815260200190815260200160002060010160009054906101000a900473ffffffffffffffffffffffffffffffffffffffff1660056000600187610799919061100e565b815260200190815260200160002060020154600560006001886107bc919061100e565b8152602001908152602001600020600301546040516020016107e19493929190611042565b60405160208183030381529060405280519060200120815250600560008381526020019081526020016000206000820151816000015560208201518160010160006101000a81548173ffffffffffffffffffffffffffffffffffffffff021916908373ffffffffffffffffffffffffffffffffffffffff1602179055506040820151816002015560608201518160030155608082015181600401559050503373ffffffffffffffffffffffffffffffffffffffff16817f34dc67e11be9193265564afb301a905a23f4ae83a6a4744da7cf337f90409b76346040516108c691906109d4565b60405180910390a350565b60056020528060005260406000206000915090508060000154908060010160009054906101000a900473ffffffffffffffffffffffffffffffffffffffff16908060020154908060030154908060040154905085565b6004805461093490610e8e565b80601f016020809104026020016040519081016040528092919081815260200182805461096090610e8e565b80156109ad5780601f10610982576101008083540402835291602001916109ad565b820191906000526020600020905b81548152906001019060200180831161099057829003601f168201915b505050505081565b60065481565b6000819050919050565b6109ce816109bb565b82525050565b60006020820190506109e960008301846109c5565b92915050565b600081519050919050565b600082825260208201905092915050565b60005b83811015610a29578082015181840152602081019050610a0e565b60008484015250505050565b6000601f19601f8301169050919050565b6000610a51826109ef565b610a5b81856109fa565b9350610a6b818560208601610a0b565b610a7481610a35565b840191505092915050565b60006020820190508181036000830152610a998184610a46565b905092915050565b600073ffffffffffffffffffffffffffffffffffffffff82169050919050565b6000610acc82610aa1565b9050919050565b610adc81610ac1565b82525050565b6000602082019050610af76000830184610ad3565b92915050565b60008115159050919050565b610b1281610afd565b82525050565b6000602082019050610b2d6000830184610b09565b92915050565b600080fd5b610b41816109bb565b8114610b4c57600080fd5b50565b600081359050610b5e81610b38565b92915050565b600060208284031215610b7a57610b79610b33565b5b6000610b8884828501610b4f565b91505092915050565b6000819050919050565b610ba481610b91565b82525050565b600060a082019050610bbf60008301886109c5565b610bcc6020830187610ad3565b610bd960408301866109c5565b610be660608301856109c5565b610bf36080830184610b9b565b9695505050505050565b7f4e6f74206f776e65720000000000000000000000000000000000000000000000600082015250565b6000610c336009836109fa565b9150610c3e82610bfd565b602082019050919050565b60006020820190508181036000830152610c6281610c26565b9050919050565b7f416c726561647920636c61696d65640000000000000000000000000000000000600082015250565b6000610c9f600f836109fa565b9150610caa82610c69565b602082019050919050565b60006020820190508181036000830152610cce81610c92565b9050919050565b7f446561646c696e65207061737365640000000000000000000000000000000000600082015250565b6000610d0b600f836109fa565b9150610d1682610cd5565b602082019050919050565b60006020820190508181036000830152610d3a81610cfe565b9050919050565b7f546172676574206e6f7420726561636865640000000000000000000000000000600082015250565b6000610d776012836109fa565b9150610d8282610d41565b602082019050919050565b60006020820190508181036000830152610da681610d6a565b9050919050565b600081905092915050565b50565b6000610dc8600083610dad565b9150610dd382610db8565b600082019050919050565b6000610de982610dbb565b9150819050919050565b7f5472616e73666572206661696c65640000000000000000000000000000000000600082015250565b6000610e29600f836109fa565b9150610e3482610df3565b602082019050919050565b60006020820190508181036000830152610e5881610e1c565b9050919050565b7f4e487b7100000000000000000000000000000000000000000000000000000000600052602260045260246000fd5b60006002820490506001821680610ea657607f821691505b602082108103610eb957610eb8610e5f565b5b50919050565b7f5a65726f20646f6e6174696f6e00000000000000000000000000000000000000600082015250565b6000610ef5600d836109fa565b9150610f0082610ebf565b602082019050919050565b60006020820190508181036000830152610f2481610ee8565b9050919050565b7f43616d706169676e20656e646564000000000000000000000000000000000000600082015250565b6000610f61600e836109fa565b9150610f6c82610f2b565b602082019050919050565b60006020820190508181036000830152610f9081610f54565b9050919050565b7f4e487b7100000000000000000000000000000000000000000000000000000000600052601160045260246000fd5b6000610fd1826109bb565b91507fffffffffffffffffffffffffffffffffffffffffffffffffffffffffffffffff820361100357611002610f97565b5b600182019050919050565b6000611019826109bb565b9150611024836109bb565b925082820390508181111561103c5761103b610f97565b5b92915050565b600060808201905061105760008301876109c5565b6110646020830186610ad3565b61107160408301856109c5565b61107e60608301846109c5565b9594505050505056fea2646970667358221220786b325086be2cce6b8232d20155d7853e3cc1c2d595c1b0aff10f6d5871742864736f6c634300081c0033a2646970667358221220138d249dd7d351207ac319374f4f43277d97c4d6b1c7578fd93f28f2f82500bd64736f6c634300081c0033",
  "linkReferences": {},
  "deployedLinkReferences": {}
}