{
  "_format": "hh-sol-artifact-1",
  "contractName": "Transaction",
  "sourceName": "contracts/Transactions.sol",
  "abi": [
    {
      "anonymous": false,
      "inputs": [
        {
          "indexed": false,
          "internalType": "address",
          "name": "from",
          "type": "address"
        },
        {
          "indexed": false,
          "internalType": "address",
          "name": "receiver",
          "type": "address"
        },
        {
          "indexed": false,
          "internalType": "uint256",
          "name": "amount",
          "type": "uint256"
        },
        {
          "indexed": false,
          "internalType": "string",
          "name": "message",
          "type": "string"
        },
        {
          "indexed": false,
          "internalType": "uint256",
          "name": "timestamp",
          "type": "uint256"
        }
      ],
      "name": "Transfer",
      "type": "event"
    },
    {
      "inputs": [
        {
          "internalType": "uint256",
          "name": "amount",
          "type": "uint256"
        },
        {
          "internalType": "string",
          "name": "message",
          "type": "string"
        }
      ],
      "name": "addToBlockchain",
      "outputs": [],
      "stateMutability": "payable",
      "type": "function"
    },
    {
      "inputs": [],
      "name": "getAllTransactions",
      "outputs": [
        {
          "components": [
            {
              "internalType": "address",
              "name": "sender",
              "type": "address"
            },
            {
              "internalType": "address",
              "name": "receiver",
              "type": "address"
            },
            {
              "internalType": "uint256",
              "name": "amount",
              "type": "uint256"
            },
            {
              "internalType": "string",
              "name": "message",
              "type": "string"
            },
            {
              "internalType": "uint256",
              "name": "timestamp",
              "type": "uint256"
            }
          ],
          "internalType": "struct Transaction.TransferStruct[]",
          "name": "",
          "type": "tuple[]"
        }
      ],
      "stateMutability": "view",
      "type": "function"
    },
    {
      "inputs": [],
      "name": "getTransactionCount",
      "outputs": [
        {
          "internalType": "uint256",
          "name": "",
          "type": "uint256"
        }
      ],
      "stateMutability": "view",
      "type": "function"
    },
    {
      "inputs": [],
      "name": "receiver",
      "outputs": [
        {
          "internalType": "address payable",
          "name": "",
          "type": "address"
        }
      ],
      "stateMutability": "view",
      "type": "function"
    },
    {
      "inputs": [],
      "name": "resetTransactions",
      "outputs": [],
      "stateMutability": "nonpayable",
      "type": "function"
    }
  ],
  "bytecode": "0x6080604052738626f6940e2eb28930efb4cef49b2d1f2c9c1199600160006101000a81548173ffffffffffffffffffffffffffffffffffffffff021916908373ffffffffffffffffffffffffffffffffffffffff160217905550348015606457600080fd5b50611127806100746000396000f3fe60806040526004361061004a5760003560e01c806327506f531461004f578063285737e41461007a5780632e7700f014610091578063864826cf146100bc578063f7260d3e146100d8575b600080fd5b34801561005b57600080fd5b50610064610103565b604051610071919061090b565b60405180910390f35b34801561008657600080fd5b5061008f6102b4565b005b34801561009d57600080fd5b506100a66102cb565b6040516100b3919061093c565b60405180910390f35b6100d660048036038101906100d19190610acc565b6102d4565b005b3480156100e457600080fd5b506100ed6105bd565b6040516100fa9190610b49565b60405180910390f35b60606002805480602002602001604051908101604052809291908181526020016000905b828210156102ab57838290600052602060002090600502016040518060a00160405290816000820160009054906101000a900473ffffffffffffffffffffffffffffffffffffffff1673ffffffffffffffffffffffffffffffffffffffff1673ffffffffffffffffffffffffffffffffffffffff1681526020016001820160009054906101000a900473ffffffffffffffffffffffffffffffffffffffff1673ffffffffffffffffffffffffffffffffffffffff1673ffffffffffffffffffffffffffffffffffffffff1681526020016002820154815260200160038201805461021090610b93565b80601f016020809104026020016040519081016040528092919081815260200182805461023c90610b93565b80156102895780601f1061025e57610100808354040283529160200191610289565b820191906000526020600020905b81548152906001019060200180831161026c57829003601f168201915b5050505050815260200160048201548152505081526020019060010190610127565b50505050905090565b600260006102c291906105e3565b60008081905550565b60008054905090565b813414610316576040517f08c379a000000000000000000000000000000000000000000000000000000000815260040161030d90610c47565b60405180910390fd5b60016000808282546103289190610c96565b9250508190555060026040518060a001604052803373ffffffffffffffffffffffffffffffffffffffff168152602001600160009054906101000a900473ffffffffffffffffffffffffffffffffffffffff1673ffffffffffffffffffffffffffffffffffffffff16815260200184815260200183815260200142815250908060018154018082558091505060019003906000526020600020906005020160009091909190915060008201518160000160006101000a81548173ffffffffffffffffffffffffffffffffffffffff021916908373ffffffffffffffffffffffffffffffffffffffff16021790555060208201518160010160006101000a81548173ffffffffffffffffffffffffffffffffffffffff021916908373ffffffffffffffffffffffffffffffffffffffff16021790555060408201518160020155606082015181600301908161047c9190610e76565b506080820151816004015550506000600160009054906101000a900473ffffffffffffffffffffffffffffffffffffffff1673ffffffffffffffffffffffffffffffffffffffff16836040516104d190610f79565b60006040518083038185875af1925050503d806000811461050e576040519150601f19603f3d011682016040523d82523d6000602084013e610513565b606091505b5050905080610557576040517f08c379a000000000000000000000000000000000000000000000000000000000815260040161054e90610fda565b60405180910390fd5b7fc4b32d7ff75a51e487f3cbb5d3202f2efecca1f4c2b987e0039c1d3220b48a8333600160009054906101000a900473ffffffffffffffffffffffffffffffffffffffff168585426040516105b0959493929190611097565b60405180910390a1505050565b600160009054906101000a900473ffffffffffffffffffffffffffffffffffffffff1681565b50805460008255600502906000526020600020908101906106049190610607565b50565b5b8082111561068857600080820160006101000a81549073ffffffffffffffffffffffffffffffffffffffff02191690556001820160006101000a81549073ffffffffffffffffffffffffffffffffffffffff02191690556002820160009055600382016000610677919061068c565b600482016000905550600501610608565b5090565b50805461069890610b93565b6000825580601f106106aa57506106c9565b601f0160209004906000526020600020908101906106c891906106cc565b5b50565b5b808211156106e55760008160009055506001016106cd565b5090565b600081519050919050565b600082825260208201905092915050565b6000819050602082019050919050565b600073ffffffffffffffffffffffffffffffffffffffff82169050919050565b600061074082610715565b9050919050565b61075081610735565b82525050565b6000819050919050565b61076981610756565b82525050565b600081519050919050565b600082825260208201905092915050565b60005b838110156107a957808201518184015260208101905061078e565b60008484015250505050565b6000601f19601f8301169050919050565b60006107d18261076f565b6107db818561077a565b93506107eb81856020860161078b565b6107f4816107b5565b840191505092915050565b600060a0830160008301516108176000860182610747565b50602083015161082a6020860182610747565b50604083015161083d6040860182610760565b506060830151848203606086015261085582826107c6565b915050608083015161086a6080860182610760565b508091505092915050565b600061088183836107ff565b905092915050565b6000602082019050919050565b60006108a1826106e9565b6108ab81856106f4565b9350836020820285016108bd85610705565b8060005b858110156108f957848403895281516108da8582610875565b94506108e583610889565b925060208a019950506001810190506108c1565b50829750879550505050505092915050565b600060208201905081810360008301526109258184610896565b905092915050565b61093681610756565b82525050565b6000602082019050610951600083018461092d565b92915050565b6000604051905090565b600080fd5b600080fd5b61097481610756565b811461097f57600080fd5b50565b6000813590506109918161096b565b92915050565b600080fd5b600080fd5b7f4e487b7100000000000000000000000000000000000000000000000000000000600052604160045260246000fd5b6109d9826107b5565b810181811067ffffffffffffffff821117156109f8576109f76109a1565b5b80604052505050565b6000610a0b610957565b9050610a1782826109d0565b919050565b600067ffffffffffffffff821115610a3757610a366109a1565b5b610a40826107b5565b9050602081019050919050565b82818337600083830152505050565b6000610a6f610a6a84610a1c565b610a01565b905082815260208101848484011115610a8b57610a8a61099c565b5b610a96848285610a4d565b509392505050565b600082601f830112610ab357610ab2610997565b5b8135610ac3848260208601610a5c565b91505092915050565b60008060408385031215610ae357610ae2610961565b5b6000610af185828601610982565b925050602083013567ffffffffffffffff811115610b1257610b11610966565b5b610b1e85828601610a9e565b9150509250929050565b6000610b3382610715565b9050919050565b610b4381610b28565b82525050565b6000602082019050610b5e6000830184610b3a565b92915050565b7f4e487b7100000000000000000000000000000000000000000000000000000000600052602260045260246000fd5b60006002820490506001821680610bab57607f821691505b602082108103610bbe57610bbd610b64565b5b50919050565b600082825260208201905092915050565b7f5472616e7366657272656420616d6f756e74206d757374206d6174636820746860008201527f652076616c756500000000000000000000000000000000000000000000000000602082015250565b6000610c31602783610bc4565b9150610c3c82610bd5565b604082019050919050565b60006020820190508181036000830152610c6081610c24565b9050919050565b7f4e487b7100000000000000000000000000000000000000000000000000000000600052601160045260246000fd5b6000610ca182610756565b9150610cac83610756565b9250828201905080821115610cc457610cc3610c67565b5b92915050565b60008190508160005260206000209050919050565b60006020601f8301049050919050565b600082821b905092915050565b600060088302610d2c7fffffffffffffffffffffffffffffffffffffffffffffffffffffffffffffffff82610cef565b610d368683610cef565b95508019841693508086168417925050509392505050565b6000819050919050565b6000610d73610d6e610d6984610756565b610d4e565b610756565b9050919050565b6000819050919050565b610d8d83610d58565b610da1610d9982610d7a565b848454610cfc565b825550505050565b600090565b610db6610da9565b610dc1818484610d84565b505050565b5b81811015610de557610dda600082610dae565b600181019050610dc7565b5050565b601f821115610e2a57610dfb81610cca565b610e0484610cdf565b81016020851015610e13578190505b610e27610e1f85610cdf565b830182610dc6565b50505b505050565b600082821c905092915050565b6000610e4d60001984600802610e2f565b1980831691505092915050565b6000610e668383610e3c565b9150826002028217905092915050565b610e7f8261076f565b67ffffffffffffffff811115610e9857610e976109a1565b5b610ea28254610b93565b610ead828285610de9565b600060209050601f831160018114610ee05760008415610ece578287015190505b610ed88582610e5a565b865550610f40565b601f198416610eee86610cca565b60005b82811015610f1657848901518255600182019150602085019450602081019050610ef1565b86831015610f335784890151610f2f601f891682610e3c565b8355505b6001600288020188555050505b505050505050565b600081905092915050565b50565b6000610f63600083610f48565b9150610f6e82610f53565b600082019050919050565b6000610f8482610f56565b9150819050919050565b7f5472616e7366657220746f207265636569766572206661696c65640000000000600082015250565b6000610fc4601b83610bc4565b9150610fcf82610f8e565b602082019050919050565b60006020820190508181036000830152610ff381610fb7565b9050919050565b61100381610735565b82525050565b600061102461101f61101a84610715565b610d4e565b610715565b9050919050565b600061103682611009565b9050919050565b60006110488261102b565b9050919050565b6110588161103d565b82525050565b60006110698261076f565b6110738185610bc4565b935061108381856020860161078b565b61108c816107b5565b840191505092915050565b600060a0820190506110ac6000830188610ffa565b6110b9602083018761104f565b6110c6604083018661092d565b81810360608301526110d8818561105e565b90506110e7608083018461092d565b969550505050505056fea26469706673582212206518cebdcc744a6c853816aa51d31d2db41fc1b10636e3b0dfffe04be015181764736f6c634300081c0033",
  "linkReferences": {},
  "deployedLinkReferences": {}
}