{
  "_format": "hh-sol-artifact-1",
  "contractName": "Transaction",
  "sourceName": "contracts/Transactions.sol",
  "abi": [
    {
      "anonymous": false,
      "inputs": [
        {
          "indexed": true,
          "internalType": "address",
          "name": "from",
          "type": "address"
        },
        {
          "indexed": true,
          "internalType": "address",
          "name": "to",
          "type": "address"
        },
        {
          "indexed": false,
          "internalType": "uint256",
          "name": "amount",
          "type": "uint256"
        },
        {
          "indexed": false,
          "internalType": "string",
          "name": "message",
          "type": "string"
        },
        {
          "indexed": false,
          "internalType": "uint256",
          "name": "timestamp",
          "type": "uint256"
        }
      ],
      "name": "Transfer",
      "type": "event"
    },
    {
      "inputs": [
        {
          "internalType": "address payable",
          "name": "to",
          "type": "address"
        },
        {
          "internalType": "string",
          "name": "message",
          "type": "string"
        }
      ],
      "name": "donateToFund",
      "outputs": [],
      "stateMutability": "payable",
      "type": "function"
    },
    {
      "inputs": [],
      "name": "getAllTransactions",
      "outputs": [
        {
          "components": [
            {
              "internalType": "address",
              "name": "sender",
              "type": "address"
            },
            {
              "internalType": "address",
              "name": "receiver",
              "type": "address"
            },
            {
              "internalType": "uint256",
              "name": "amount",
              "type": "uint256"
            },
            {
              "internalType": "string",
              "name": "message",
              "type": "string"
            },
            {
              "internalType": "uint256",
              "name": "timestamp",
              "type": "uint256"
            }
          ],
          "internalType": "struct Transaction.TransferStruct[]",
          "name": "",
          "type": "tuple[]"
        }
      ],
      "stateMutability": "view",
      "type": "function"
    },
    {
      "inputs": [],
      "name": "getTransactionCount",
      "outputs": [
        {
          "internalType": "uint256",
          "name": "",
          "type": "uint256"
        }
      ],
      "stateMutability": "view",
      "type": "function"
    },
    {
      "inputs": [],
      "name": "resetTransactions",
      "outputs": [],
      "stateMutability": "nonpayable",
      "type": "function"
    },
    {
      "inputs": [],
      "name": "transactionCounter",
      "outputs": [
        {
          "internalType": "uint256",
          "name": "",
          "type": "uint256"
        }
      ],
      "stateMutability": "view",
      "type": "function"
    },
    {
      "inputs": [
        {
          "internalType": "uint256",
          "name": "",
          "type": "uint256"
        }
      ],
      "name": "transactions",
      "outputs": [
        {
          "internalType": "address",
          "name": "sender",
          "type": "address"
        },
        {
          "internalType": "address",
          "name": "receiver",
          "type": "address"
        },
        {
          "internalType": "uint256",
          "name": "amount",
          "type": "uint256"
        },
        {
          "internalType": "string",
          "name": "message",
          "type": "string"
        },
        {
          "internalType": "uint256",
          "name": "timestamp",
          "type": "uint256"
        }
      ],
      "stateMutability": "view",
      "type": "function"
    }
  ],
  "bytecode": "0x6080604052348015600f57600080fd5b506111f68061001f6000396000f3fe6080604052600436106100555760003560e01c806314e887e81461005a57806327506f5314610085578063285737e4146100b05780632e7700f0146100c75780637e202b8d146100f25780639ace38c21461010e575b600080fd5b34801561006657600080fd5b5061006f61014f565b60405161007c9190610848565b60405180910390f35b34801561009157600080fd5b5061009a610155565b6040516100a79190610a7b565b60405180910390f35b3480156100bc57600080fd5b506100c5610306565b005b3480156100d357600080fd5b506100dc61031d565b6040516100e99190610848565b60405180910390f35b61010c60048036038101906101079190610b4a565b610326565b005b34801561011a57600080fd5b5061013560048036038101906101309190610bd6565b61061b565b604051610146959493929190610c5c565b60405180910390f35b60005481565b60606001805480602002602001604051908101604052809291908181526020016000905b828210156102fd57838290600052602060002090600502016040518060a00160405290816000820160009054906101000a900473ffffffffffffffffffffffffffffffffffffffff1673ffffffffffffffffffffffffffffffffffffffff1673ffffffffffffffffffffffffffffffffffffffff1681526020016001820160009054906101000a900473ffffffffffffffffffffffffffffffffffffffff1673ffffffffffffffffffffffffffffffffffffffff1673ffffffffffffffffffffffffffffffffffffffff1681526020016002820154815260200160038201805461026290610ce5565b80601f016020809104026020016040519081016040528092919081815260200182805461028e90610ce5565b80156102db5780601f106102b0576101008083540402835291602001916102db565b820191906000526020600020905b8154815290600101906020018083116102be57829003601f168201915b5050505050815260200160048201548152505081526020019060010190610179565b50505050905090565b600160006103149190610729565b60008081905550565b60008054905090565b60003411610369576040517f08c379a000000000000000000000000000000000000000000000000000000000815260040161036090610d62565b60405180910390fd5b600160008082825461037b9190610db1565b9250508190555060016040518060a001604052803373ffffffffffffffffffffffffffffffffffffffff1681526020018573ffffffffffffffffffffffffffffffffffffffff16815260200134815260200184848080601f016020809104026020016040519081016040528093929190818152602001838380828437600081840152601f19601f82011690508083019250505050505050815260200142815250908060018154018082558091505060019003906000526020600020906005020160009091909190915060008201518160000160006101000a81548173ffffffffffffffffffffffffffffffffffffffff021916908373ffffffffffffffffffffffffffffffffffffffff16021790555060208201518160010160006101000a81548173ffffffffffffffffffffffffffffffffffffffff021916908373ffffffffffffffffffffffffffffffffffffffff1602179055506040820151816002015560608201518160030190816104f19190610fc0565b5060808201518160040155505060008373ffffffffffffffffffffffffffffffffffffffff1634604051610524906110c3565b60006040518083038185875af1925050503d8060008114610561576040519150601f19603f3d011682016040523d82523d6000602084013e610566565b606091505b50509050806105aa576040517f08c379a00000000000000000000000000000000000000000000000000000000081526004016105a190611124565b60405180910390fd5b8373ffffffffffffffffffffffffffffffffffffffff163373ffffffffffffffffffffffffffffffffffffffff167fc4b32d7ff75a51e487f3cbb5d3202f2efecca1f4c2b987e0039c1d3220b48a833486864260405161060d9493929190611180565b60405180910390a350505050565b6001818154811061062b57600080fd5b90600052602060002090600502016000915090508060000160009054906101000a900473ffffffffffffffffffffffffffffffffffffffff16908060010160009054906101000a900473ffffffffffffffffffffffffffffffffffffffff16908060020154908060030180546106a090610ce5565b80601f01602080910402602001604051908101604052809291908181526020018280546106cc90610ce5565b80156107195780601f106106ee57610100808354040283529160200191610719565b820191906000526020600020905b8154815290600101906020018083116106fc57829003601f168201915b5050505050908060040154905085565b508054600082556005029060005260206000209081019061074a919061074d565b50565b5b808211156107ce57600080820160006101000a81549073ffffffffffffffffffffffffffffffffffffffff02191690556001820160006101000a81549073ffffffffffffffffffffffffffffffffffffffff021916905560028201600090556003820160006107bd91906107d2565b60048201600090555060050161074e565b5090565b5080546107de90610ce5565b6000825580601f106107f0575061080f565b601f01602090049060005260206000209081019061080e9190610812565b5b50565b5b8082111561082b576000816000905550600101610813565b5090565b6000819050919050565b6108428161082f565b82525050565b600060208201905061085d6000830184610839565b92915050565b600081519050919050565b600082825260208201905092915050565b6000819050602082019050919050565b600073ffffffffffffffffffffffffffffffffffffffff82169050919050565b60006108ba8261088f565b9050919050565b6108ca816108af565b82525050565b6108d98161082f565b82525050565b600081519050919050565b600082825260208201905092915050565b60005b838110156109195780820151818401526020810190506108fe565b60008484015250505050565b6000601f19601f8301169050919050565b6000610941826108df565b61094b81856108ea565b935061095b8185602086016108fb565b61096481610925565b840191505092915050565b600060a08301600083015161098760008601826108c1565b50602083015161099a60208601826108c1565b5060408301516109ad60408601826108d0565b50606083015184820360608601526109c58282610936565b91505060808301516109da60808601826108d0565b508091505092915050565b60006109f1838361096f565b905092915050565b6000602082019050919050565b6000610a1182610863565b610a1b818561086e565b935083602082028501610a2d8561087f565b8060005b85811015610a695784840389528151610a4a85826109e5565b9450610a55836109f9565b925060208a01995050600181019050610a31565b50829750879550505050505092915050565b60006020820190508181036000830152610a958184610a06565b905092915050565b600080fd5b600080fd5b6000610ab28261088f565b9050919050565b610ac281610aa7565b8114610acd57600080fd5b50565b600081359050610adf81610ab9565b92915050565b600080fd5b600080fd5b600080fd5b60008083601f840112610b0a57610b09610ae5565b5b8235905067ffffffffffffffff811115610b2757610b26610aea565b5b602083019150836001820283011115610b4357610b42610aef565b5b9250929050565b600080600060408486031215610b6357610b62610a9d565b5b6000610b7186828701610ad0565b935050602084013567ffffffffffffffff811115610b9257610b91610aa2565b5b610b9e86828701610af4565b92509250509250925092565b610bb38161082f565b8114610bbe57600080fd5b50565b600081359050610bd081610baa565b92915050565b600060208284031215610bec57610beb610a9d565b5b6000610bfa84828501610bc1565b91505092915050565b610c0c816108af565b82525050565b600082825260208201905092915050565b6000610c2e826108df565b610c388185610c12565b9350610c488185602086016108fb565b610c5181610925565b840191505092915050565b600060a082019050610c716000830188610c03565b610c7e6020830187610c03565b610c8b6040830186610839565b8181036060830152610c9d8185610c23565b9050610cac6080830184610839565b9695505050505050565b7f4e487b7100000000000000000000000000000000000000000000000000000000600052602260045260246000fd5b60006002820490506001821680610cfd57607f821691505b602082108103610d1057610d0f610cb6565b5b50919050565b7f4d7573742073656e642045544800000000000000000000000000000000000000600082015250565b6000610d4c600d83610c12565b9150610d5782610d16565b602082019050919050565b60006020820190508181036000830152610d7b81610d3f565b9050919050565b7f4e487b7100000000000000000000000000000000000000000000000000000000600052601160045260246000fd5b6000610dbc8261082f565b9150610dc78361082f565b9250828201905080821115610ddf57610dde610d82565b5b92915050565b7f4e487b7100000000000000000000000000000000000000000000000000000000600052604160045260246000fd5b60008190508160005260206000209050919050565b60006020601f8301049050919050565b600082821b905092915050565b600060088302610e767fffffffffffffffffffffffffffffffffffffffffffffffffffffffffffffffff82610e39565b610e808683610e39565b95508019841693508086168417925050509392505050565b6000819050919050565b6000610ebd610eb8610eb38461082f565b610e98565b61082f565b9050919050565b6000819050919050565b610ed783610ea2565b610eeb610ee382610ec4565b848454610e46565b825550505050565b600090565b610f00610ef3565b610f0b818484610ece565b505050565b5b81811015610f2f57610f24600082610ef8565b600181019050610f11565b5050565b601f821115610f7457610f4581610e14565b610f4e84610e29565b81016020851015610f5d578190505b610f71610f6985610e29565b830182610f10565b50505b505050565b600082821c905092915050565b6000610f9760001984600802610f79565b1980831691505092915050565b6000610fb08383610f86565b9150826002028217905092915050565b610fc9826108df565b67ffffffffffffffff811115610fe257610fe1610de5565b5b610fec8254610ce5565b610ff7828285610f33565b600060209050601f83116001811461102a5760008415611018578287015190505b6110228582610fa4565b86555061108a565b601f19841661103886610e14565b60005b828110156110605784890151825560018201915060208501945060208101905061103b565b8683101561107d5784890151611079601f891682610f86565b8355505b6001600288020188555050505b505050505050565b600081905092915050565b50565b60006110ad600083611092565b91506110b88261109d565b600082019050919050565b60006110ce826110a0565b9150819050919050565b7f5472616e73666572206661696c65640000000000000000000000000000000000600082015250565b600061110e600f83610c12565b9150611119826110d8565b602082019050919050565b6000602082019050818103600083015261113d81611101565b9050919050565b82818337600083830152505050565b600061115f8385610c12565b935061116c838584611144565b61117583610925565b840190509392505050565b60006060820190506111956000830187610839565b81810360208301526111a8818587611153565b90506111b76040830184610839565b9594505050505056fea26469706673582212200728b2ac9e51366a1a5eeb8ede8ac3a3f47aad9b85bdb7c0f86caed51db142bd64736f6c634300081c0033",
  "linkReferences": {},
  "deployedLinkReferences": {}
}